:020000040000FA
:100000000C945E000C9486000C9486000C94860080
:100010000C9486000C9486000C9486000C94860048
:100020000C9486000C9486000C9486000C94860038
:100030000C9486000C9486000C9486000C94860028
:100040000C94A3020C9486000C9413030C94ED0200
:100050000C9486000C9486000C9486000C94860008
:100060000C9486000C9486000000000024002700F9
:100070002A0000000000250028002B0004040404CE
:100080000404040402020202020203030303030342
:10009000010204081020408001020408102001021F
:1000A00004081020000000080002010000030407FB
:1000B00000000000000000004503B10511241FBE30
:1000C000CFEFD8E0DEBFCDBF22E0AEE9B1E001C0A6
:1000D0001D92AE34B207E1F711E0A0E0B1E0E6E72F
:1000E000F0E102C005900D92AE39B107D9F710E0EA
:1000F000CDE5D0E004C02197FE010E942D06CC354D
:10010000D107C9F70E9480030C942E080C940000BC
:1001100090E0FC01EC55FF4F2491FC01E057FF4FAC
:100120003491FC01E458FF4FE491EE23C9F02223FF
:1001300039F0233001F1A8F4213019F1223029F1EE
:10014000F0E0EE0FFF1FEE58FF4FA591B4918FB76F
:10015000F894EC91611126C030953E233C938FBFFB
:1001600008952730A9F02830C9F0243049F780914C
:1001700080008F7D03C0809180008F778093800006
:10018000DFCF84B58F7784BDDBCF84B58F7DFBCF88
:100190008091B0008F778093B000D2CF8091B00073
:1001A0008F7DF9CF3E2BDACF0895AF92BF92CF92D9
:1001B000DF92EF92FF920F931F93CF93DF936C0127
:1001C0007B018B01040F151FEB015E01AE18BF0808
:1001D000C017D10759F06991D601ED91FC910190BA
:1001E000F081E02DC6010995892B79F7C501DF91D2
:1001F000CF911F910F91FF90EF90DF90CF90BF9024
:10020000AF900895FC01538D448D252F30E0842F4D
:1002100090E0821B930B541710F0CF96089501972E
:100220000895FC01918D828D981761F0A28DAE0F1B
:10023000BF2FB11D5D968C91928D9F5F9F73928FA2
:1002400090E008958FEF9FEF0895FC01918D828DCE
:10025000981731F0828DE80FF11D858D90E008959B
:100260008FEF9FEF0895FC01918D228D892F90E0F3
:10027000805C9F4F821B91098F739927089587EAAD
:1002800091E00E94330121E0892B09F420E0822FC4
:10029000089580E090E0892B29F00E943F018111B0
:1002A0000C9400000895FC01A48DA80FB92FB11D76
:1002B000A35ABF4F2C91848D90E001968F7399279C
:1002C000848FA689B7892C93A089B1898C9183707A
:1002D00080648C93938D848D981306C00288F38973
:1002E000E02D80818F7D80830895EF92FF920F93A0
:1002F0001F93CF93DF93EC0181E0888F9B8D8C8DD2
:1003000098131AC0E889F989808185FF15C09FB7C5
:10031000F894EE89FF896083E889F9898081837088
:10032000806480839FBF81E090E0DF91CF911F9137
:100330000F91FF90EF900895F62E0B8D10E00F5F58
:100340001F4F0F731127E02E8C8D8E110CC00FB62E
:1003500007FCFACFE889F989808185FFF5CFCE01C6
:100360000E945301F1CFEB8DEC0FFD2FF11DE35AED
:10037000FF4FF0829FB7F8940B8FEA89FB89808149
:100380008062CFCFCF93DF93EC01888D8823B9F0C3
:10039000AA89BB89E889F9898C9185FD03C0808190
:1003A00086FD0DC00FB607FCF7CF8C9185FFF2CF0D
:1003B000808185FFEDCFCE010E945301E9CFDF910F
:1003C000CF91089587EA91E00E943301181619062B
:1003D0002CF487EA91E00E941101F4CF0895FC010A
:1003E00001900020E9F73197AF01481B590BBC0180
:1003F00087EA91E00C94D500CF93DF93EC018881DC
:100400009981009711F00E94CF06198218821D82EF
:100410001C821B821A82DF91CF910895FC0180819A
:100420009181009711F00C94CF0608950F931F93BC
:10043000CF93DF93EC0188819981009759F02A814D
:100440003B812617370730F081E0DF91CF911F9174
:100450000F9108958B016F5F7F4F0E94580700979F
:1004600059F0998388831B830A832C813D81232B38
:1004700059F7FC011082E8CF80E0E7CFEF92FF92BE
:100480000F931F93CF93DF93EC01FB01E080F1808A
:10049000E114F10411F10481158101151105A9F090
:1004A0008C819D81080F191FB801CE010E94160290
:1004B000882399F0288139818C819D81B701820F31
:1004C000931F0E9427081D830C83CE01DF91CF91DB
:1004D0001F910F91FF90EF900895CE010E94FC01B3
:1004E000F4CFEF92FF920F931F93CF93DF93EC0122
:1004F0007B018A01BA010E94160281110BC0CE0154
:100500000E94FC01CE01DF91CF911F910F91FF90CE
:10051000EF9008951D830C83B701888199810E9413
:100520002708F0CFFC0111821082138212821582FB
:100530001482FB0101900020E9F73197AF01461BBF
:10054000570B0C9471021F920F920FB60F92112449
:100550002F933F938F939F93AF93BF938091A3016A
:100560009091A401A091A501B091A6013091A201A2
:1005700023E0230F2D3758F50196A11DB11D2093BF
:10058000A2018093A3019093A401A093A501B0932D
:10059000A60180919E0190919F01A091A001B09130
:1005A000A1010196A11DB11D80939E0190939F0111
:1005B000A093A001B093A101BF91AF919F918F91A2
:1005C0003F912F910F900FBE0F901F90189526E826
:1005D000230F0296A11DB11DD2CF1F920F920FB60D
:1005E0000F9211242F933F934F935F936F937F93B9
:1005F0008F939F93AF93BF93EF93FF9387EA91E01D
:100600000E945301FF91EF91BF91AF919F918F9104
:100610007F916F915F914F913F912F910F900FBEFE
:100620000F901F9018951F920F920FB60F921124E2
:100630002F938F939F93EF93FF93E091B701F091E6
:10064000B8018081E091BD01F091BE0182FD1BC027
:1006500090818091C0018F5F8F732091C1018217BB
:1006600041F0E091C001F0E0E955FE4F958F809395
:10067000C001FF91EF919F918F912F910F900FBE2D
:100680000F901F9018958081F4CFE7EAF1E0138274
:10069000128288EE93E0A0E0B0E084839583A68385
:1006A000B7838AE091E09183808385EC90E0958721
:1006B000848784EC90E09787868780EC90E0918B2C
:1006C000808B81EC90E0938B828B82EC90E0958B19
:1006D000848B86EC90E0978B868B118E128E138E16
:1006E000148EE4E4F2E011821082138212821582E9
:1006F00014824BE050E068E171E0CF010C9471028C
:10070000CF93DF93CDB7DEB7E8970FB6F894DEBF8F
:100710000FBECDBF789484B5826084BD84B58160FE
:1007200084BD85B5826085BD85B5816085BD8091BC
:100730006E00816080936E00109281008091810034
:10074000826080938100809181008160809381002C
:10075000809180008160809380008091B1008460EE
:100760008093B1008091B00081608093B00080914F
:100770007A00846080937A0080917A00826080930E
:100780007A0080917A00816080937A0080917A006B
:10079000806880937A001092C100E091B701F091D7
:1007A000B80182E08083E091B301F091B40110823E
:1007B000E091B501F091B6018FEC80831092BF01FA
:1007C000E091BB01F091BC0186E08083E091B9012A
:1007D000F091BA01808180618083E091B901F0914C
:1007E000BA01808188608083E091B901F091BA01FB
:1007F000808180688083E091B901F091BA018081A5
:100800008F7D8083E3E9F0E02491EFE7F0E08491CD
:10081000882399F090E0880F991FFC01E859FF4F59
:10082000A591B491FC01EE58FF4F859194918FB73B
:10083000F894EC91E22BEC938FBFCE0101965C0112
:100840007E0195E1E90EF11C9BE9292E9FE0392EEE
:1008500080E0482E80E0582E6EE671E0CE01C3960F
:100860000E94920284E1F50111928A95E9F70E94B3
:10087000E20184E291E00E94EF01D12CC12C10E052
:1008800000E0FE01E00FF11F80818A3009F49CC076
:10089000033111050CF098C0F1E1CF16F7E2DF0645
:1008A0000CF46EC0B501CE0187960E9492021EA67E
:1008B0001DA618AA1FA61AAA19AA4AE0B701C801BC
:1008C0000E94B505F70101900020E9F73197AF01CB
:1008D0004E195F09B701CE018D960E94710264E343
:1008E00071E0C7010E949202BE01635D7F4FC701A4
:1008F0000E943E026C01FC0184809580F2E18F0E23
:10090000911CB4010E941602882309F452C0F6011A
:10091000208131818481958169E571E0820F931F87
:100920000E942708F60195828482BE01695D7F4F8F
:10093000C6010E943E02FC014481558160817181A3
:1009400087EA91E00E94D50042E050E06CE671E059
:1009500087EA91E00E94D500C7010E940E02CE01F5
:100960008D960E940E02CE0187960E940E0289810A
:10097000811104C084E291E00E94EF01D12CC12CCE
:1009800087EA91E00E94330118161906B4F487EA49
:1009900091E00E9411018D3089F38A3019F4023000
:1009A000110564F3F501E00FF11F80830F5F1F4F06
:1009B000E5CFC6010E94FC01B8CFFFEFCF1ADF0AD6
:1009C000C1010197F1F75DCF0E94E2018FE691E04E
:1009D0000E94EF01F501E00FF11F1082B501C70180
:1009E0000E9492028BA99CA9009709F447C06D89C7
:1009F0007E896115710509F43FC04DA95EA9298D55
:100A00003A8D42175307C0F10E942708898D9A8DAD
:100A100098AF8FAB1A8E198EC7010E940E028BA859
:100A20009CA88114910431F00FA918AD640101153F
:100A30001105B1F561E083E00E9488002FA938AD6F
:100A400080914802909149022817390709F061C046
:100A50008BA99CA96091440270914502009709F40A
:100A60005BC06115710509F051C0232B09F461C009
:100A7000FC01808190E05BC00E94CF068D899E8939
:100A80009CAB8BAB8F89988D9EAB8DAB898D9A8DEE
:100A900098AF8FAB1E8A1D8A188E1F8ABBCF630149
:100AA00036018FEF681A780AF6018081082E000C53
:100AB000990B0E94DA05892B91F701501109080D55
:100AC000191DF8018081082E000C990B0E94DA058F
:100AD000892B31F00C151D0518F001501109F1CFCB
:100AE0000F5F1F4FA8014C195D0958AF4FAB8C1415
:100AF0009D0420F4B601C4010E941508EBA9FCA9CD
:100B00008FA998ADE80FF91F108294CF0E941E089C
:100B10000EC08FE891E00FC06115710551F0232BD5
:100B200041F0FB01808190E0919581959109892B9D
:100B300081F782E891E00E94EF0160E083E00E948B
:100B40008800CE01C3960E940E024114510409F49C
:100B500083CE0E943F01882309F47ACE0E940000D0
:100B600077CE84E492E00C940E02BB274A3031F435
:100B7000992322F4BDE2909581959F4F0C94C10575
:100B8000BB27FB015527AA27880F991FAA1FA41767
:100B900010F0A41B83955051B9F7A05DAA3308F05B
:100BA000A95DA193009779F7B111B1931192CB018F
:100BB0000C94E30591110C94F305803219F08950DF
:100BC0008550C8F70895DC01FC01672F71917723E8
:100BD000E1F7329704C07C916D9370836291AE17F8
:100BE000BF07C8F308959927882708952F923F9249
:100BF0004F925F926F927F928F929F92AF92BF922D
:100C0000CF92DF92EF92FF920F931F93CF93DF93D8
:100C1000CDB7DEB7CA1BDB0B0FB6F894DEBF0FBE35
:100C2000CDBF09942A88398848885F846E847D8482
:100C30008C849B84AA84B984C884DF80EE80FD8084
:100C40000C811B81AA81B981CE0FD11D0FB6F894FA
:100C5000DEBF0FBECDBFED010895EE0FFF1F059063
:100C6000F491E02D09940F931F93CF93DF9382307B
:100C7000910510F482E090E0E0914C02F0914D0279
:100C800030E020E0B0E0A0E0309799F42115310584
:100C900009F44AC0281B390B24303105D8F58A8164
:100CA0009B816115710589F1FB0193838283FE01AC
:100CB00011C0408151810281138148175907E0F02A
:100CC0004817590799F4109761F012960C931297F0
:100CD00013961C933296CF01DF91CF911F910F9104
:100CE000089500934C0210934D02F4CF2115310565
:100CF00051F04217530738F0A901DB019A01BD01F9
:100D0000DF01F801C1CFEF01F9CF90934D0280933D
:100D10004C02CDCFFE01E20FF31F8193919322503D
:100D2000310939832883D7CF20914A0230914B0271
:100D3000232B41F4209102013091030130934B02A7
:100D400020934A02209100013091010121153105C3
:100D500041F42DB73EB74091040150910501241B89
:100D6000350BE0914A02F0914B02E217F307A0F431
:100D70002E1B3F0B2817390778F0AC014E5F5F4FF1
:100D80002417350748F04E0F5F1F50934B024093D6
:100D90004A02819391939FCFF0E0E0E09CCFCF9304
:100DA000DF930097E9F0FC01329713821282A09141
:100DB0004C02B0914D02ED0130E020E01097A1F41B
:100DC00020813181820F931F20914A0230914B0282
:100DD0002817390709F061C0F0934B02E0934A02EB
:100DE000DF91CF910895EA01CE17DF07E8F54A8138
:100DF0005B819E0141155105B1F7E901FB83EA834F
:100E000049915991C40FD51FEC17FD0761F48081FA
:100E100091810296840F951FE901998388838281CD
:100E200093819B838A83F0E0E0E012968D919C9100
:100E300013970097B9F52D913C911197CD0102962A
:100E4000820F931F20914A0230914B0228173907D5
:100E500039F6309751F510924D0210924C02B09332
:100E60004B02A0934A02BCCFD383C28340815181FD
:100E7000840F951FC817D90761F44E5F5F4F8881B3
:100E80009981480F591F518340838A819B819383A5
:100E900082832115310509F0B0CFF0934D02E09324
:100EA0004C029ECFFD01DC01C0CF13821282D7CF4E
:100EB000B0E0A0E0EEE5F7E00C94F8058C010097B7
:100EC00051F4CB010E9433068C01C801CDB7DEB7C7
:100ED000E0E10C941406FC01E60FF71F9C01225080
:100EE0003109E217F30708F49DC0D901CD91DC91D7
:100EF0001197C617D70798F0C530D10530F3CE014A
:100F000004978617970708F3C61BD70B2297C19340
:100F1000D1936D937C93CF010E94CF06D6CF5B0116
:100F2000AC1ABD0A4C018C0E9D1EA0914C02B091D2
:100F30004D02512C412CF12CE12C109731F5809170
:100F40004A0290914B028815990509F05CC046163B
:100F5000570608F058C08091000190910101009758
:100F600041F48DB79EB74091040150910501841B57
:100F7000950BE817F90708F055C0F0934B02E09382
:100F80004A02F90171836083A0CF8D919C911197E2
:100F900012966C90129713967C901397A815B9052A
:100FA00059F56C0142E0C40ED11CCA14DB0420F1D7
:100FB000AC014A195B09DA011296159780F062823A
:100FC000738251834083D9016D937C93E114F104C2
:100FD00071F0D7011396FC93EE93129776CF229679
:100FE0008C0F9D1FF90191838083F301EFCFF09364
:100FF0004D02E0934C0269CF4816590608F42C01C3
:101000007D01D3019ACFCB010E9433067C0100976A
:1010100049F0AE01B8010E941508C8010E94CF0630
:10102000870153CF10E000E050CFFB01DC0102C08C
:1010300001900D9241505040D8F70895FB01DC011A
:101040008D91019080190110D9F3990B0895FB013E
:10105000DC0101900D920020E1F7089510E0CDE54C
:10106000D0E004C0FE010E942D062196CE35D107A6
:10107000C9F7F894FFCF00004E0280000000000086
:101080007501D5000201C201330111012501696C0E
:101090006F766563686565736500456E746572207B
:1010A00050617373776F72643A0054494D454F55E0
:1010B00054202D204E6F2064617461207265636539
:1010C000697665642E2028696E6465783A20002967
:1010D0002070617373776F726420736F2066617222
:1010E0003A000D0A0050617373776F726420726565
:1010F0006365697665640A0050617373776F726423
:10110000204F4B0A0050617373776F726420426105
:04111000640A00006D
:107E0000112484B714BE81FFF0D085E080938100F7
:107E100082E08093C00088E18093C10086E0809377
:107E2000C20080E18093C4008EE0C9D0259A86E02C
:107E300020E33CEF91E0309385002093840096BBD3
:107E4000B09BFECF1D9AA8958150A9F7CC24DD24C4
:107E500088248394B5E0AB2EA1E19A2EF3E0BF2EE7
:107E6000A2D0813461F49FD0082FAFD0023811F036
:107E7000013811F484E001C083E08DD089C08234E0
:107E800011F484E103C0853419F485E0A6D080C0E4
:107E9000853579F488D0E82EFF2485D0082F10E0AE
:107EA000102F00270E291F29000F111F8ED06801E7
:107EB0006FC0863521F484E090D080E0DECF843638
:107EC00009F040C070D06FD0082F6DD080E0C81688
:107ED00080E7D80618F4F601B7BEE895C0E0D1E017
:107EE00062D089930C17E1F7F0E0CF16F0E7DF06D8
:107EF00018F0F601B7BEE89568D007B600FCFDCFD4
:107F0000A601A0E0B1E02C9130E011968C91119780
:107F100090E0982F8827822B932B1296FA010C0160
:107F200087BEE89511244E5F5F4FF1E0A038BF0790
:107F300051F7F601A7BEE89507B600FCFDCF97BE46
:107F4000E89526C08437B1F42ED02DD0F82E2BD052
:107F50003CD0F601EF2C8F010F5F1F4F84911BD097
:107F6000EA94F801C1F70894C11CD11CFA94CF0C13
:107F7000D11C0EC0853739F428D08EE10CD085E9AC
:107F80000AD08FE07ACF813511F488E018D01DD067
:107F900080E101D065CF982F8091C00085FFFCCF94
:107FA0009093C60008958091C00087FFFCCF809118
:107FB000C00084FD01C0A8958091C6000895E0E648
:107FC000F0E098E1908380830895EDDF803219F02E
:107FD00088E0F5DFFFCF84E1DECF1F93182FE3DFCA
:107FE0001150E9F7F2DF1F91089580E0E8DFEE27F6
:047FF000FF270994CA
:027FFE00040479
:00000001FF
